:020000040800F2
:10000000800B0020ED01000883260008771F000800
:100010007F260008A9190008A32F0008000000008F
:100020000000000000000000000000005928000847
:10003000691D000800000000092700086D2900085C
:10004000070200080702000807020008070200086C
:10005000070200080702000807020008070200085C
:10006000070200080702000807020008070200084C
:10007000070200080702000807020008070200083C
:10008000070200080702000807020008070200082C
:10009000070200080702000807020008070200081C
:1000A000070200080702000807020008070200080C
:1000B00007020008D129000807020008070200080B
:1000C00007020008070200080702000807020008EC
:1000D00007020008812D0008070200080702000837
:1000E00007020008070200080702000807020008CC
:1000F00007020008070200080702000807020008BC
:1001000007020008070200080702000807020008AB
:10011000070200080702000807020008070200089B
:10012000070200080702000807020008070200088B
:1001300000F002F800F04AF80AA090E8000C8244AF
:100140008344AAF10107DA4501D100F03FF8AFF28C
:10015000090EBAE80F0013F0010F18BFFB1A43F0A5
:100160000103184788810000A8810000103A24BFCD
:1001700078C878C1FAD8520724BF30C830C144BF0C
:1001800004680C607047000000230024002500264E
:10019000103A28BF78C1FBD8520728BF30C148BFEA
:1001A0000B607047662907F0DE80642900F07080DC
:1001B000002070471FB500F005FD0400002000215D
:1001C00005F0F0FFE0601FBD10B510BD00F0FEFDB2
:1001D0001146FFF7EFFF04F0A7FC00F01CFE03B48C
:1001E000FFF7F2FF03BC02F062FF000009488047FE
:1001F00009480047FEE7FEE7FEE7FEE7FEE7FEE709
:10020000FEE7FEE7FEE7FEE704480549054A064B20
:1002100070470000712900083101000880050020A6
:10022000800B00208007002080070020704710B559
:100230004C1084EA530404D54042C1F1000138BF98
:10024000491E1B4204D55242C3F1000338BF5B1E56
:1002500000F07DF914F0804F04D04042C1F100015C
:1002600038BF491E14F0004F04D05242C3F10003BE
:1002700038BF5B1E10BD00000FB4044910B503AABF
:10028000029800F067FC10BC5DF814FB34000020FD
:100290002DE9F0410646002410687529314616A55F
:1002A00010D0AFF30080002802DA404213A507E027
:1002B00031688A0701D512A502E0490704D511A5C6
:1002C000012401E0AFF3008000210A2206F1240797
:1002D00009E0B0FBF2FCB0FBF2F302FB1C00303093
:1002E00078541846491C0028F3D123462A46304644
:1002F000BDE8F04100F0ADB9000000002D000000A5
:100300002B000000200000002DE9F05F8946044624
:100310004FF0000ADFF874B1FB44C0F820A020467B
:10032000E1688847002874D0252806D0D4E9012147
:100330009047206A401C2062F1E700265F46204675
:10034000E16888472028054607DB312D05D278195A
:1003500010F8200C08B10643F1E7B00701D526F0EC
:100360000406C4F81CA00027C4F818A02A2D09D040
:10037000284602F095FE38B304EB8708303DC8F8F4
:10038000185019E059F8041B204604EB87029161CC
:10039000E1688847012F054618D1E069002820DA76
:1003A00026F020061DE0D8F8180000EB800005EBD1
:1003B00040003038C8F818002046E16888470546F4
:1003C00002F06EFE0028EED1012F0AD02E2D08D1AA
:1003D0002046E16888477F1C0546022F46F020062C
:1003E000C4DBA069002803DA404246F00106A061A0
:1003F000F00701D026F010066C2D0BD0682D09D027
:100400004C2D39D06A2D35D0742D35D07A2D33D07E
:1004100016E038E0E1682F4620468847B842054696
:1004200009D16C2F26D04FF48060E1680643204646
:100430008847054604E06C2F1AD04FF480700643BD
:100440000DB3A5F14100192802D8203546F4006605
:100450004A462946204626604E46FFF7A3FE80B155
:1004600001280BD0F61D26F0070000F1080956E719
:100470004020E4E78020D8E70020D6E706F1040911
:100480004DE7284652E7206ABDE8F09F867D0000D0
:1004900040EA010310B59B070FD1042A0DD310C801
:1004A00008C9121F9C42F8D020BA19BA884201D953
:1004B000012010BD4FF0FF3010BD1AB1D30703D09B
:1004C000521C07E0002010BD10F8013B11F8014B51
:1004D0001B1B07D110F8013B11F8014B1B1B01D16D
:1004E000921EF1D1184610BD02F0FF0343EA032229
:1004F00042EA024200F042BB4FF0000200B5134650
:1005000094469646203922BFA0E80C50A0E80C5033
:10051000B1F12001BFF4F7AF090728BFA0E80C50E4
:1005200048BF0CC05DF804EB890028BF40F8042BDD
:1005300008BF704748BF20F8022B11F0804F18BF4A
:1005400000F8012B7047704770477047704753EAB7
:10055000020C00F069802DE9F04B4FF00006002BF3
:100560001FBFB3FA83F503FA05F424FA05F65E40DB
:1005700012BF1643B2FA82F502FA05F4C5F120055E
:100580001EBF22FA05FC44EA0C04203556EA044C4E
:100590004FEA144418BF641C4FF000084FF00009E4
:1005A000904271EB030C39D3002919BFB1FA81F7DE
:1005B00001FA07F6B0FA80F700FA07F6C7F120074C
:1005C0001EBF20FA07FC46EA0C062037B6FBF4FCF7
:1005D000A7EB0507103F07F01F0BCBF120060CFA25
:1005E0000BFB2CFA06F644BFB3460026202FA4BF0F
:1005F0005E464FF0000B5BEA060C08BF4FF0010BA4
:1006000019EB0B09ABFB027C48EB0608C01B06FB91
:1006100002CC0BFB03CC71EB0C01C1E70B4602468D
:1006200041464846BDE8F08B13B54FF000004FF04F
:100630000001AFF30080BDE81C40704710B500F02A
:10064000C5FA006810BD10B5044600F0BFFA04609A
:1006500010BD2DE9F0470D4699469246044600F13B
:1006600024080168880604D5E06921F010012160A2
:1006700000E00120A84201DD471B00E00027A1693E
:100680007A1902EB0900081AA0612078C00602D48A
:100690002046AFF30080002608E0D4E901211AF8D3
:1006A00006009047206A401C761C20624E45F4DB11
:1006B0002078C0060AD52046AFF3008006E0D4E9D2
:1006C000012130209047206A401C2062381EA7F18B
:1006D0000107F4DC07E0D4E9012118F80500904790
:1006E000206A401C2062281EA5F10105F3DC20468B
:1006F000AFF300802078000602D50220BDE8F08725
:100700000120FBE770472DE9FF4F0C461E464FF0D6
:10071000FF378BB0D2E90001DDF860800A908A468D
:10072000C1F30A5505B93D46002108464FF00000C7
:10073000BAF1000F00F4400005DA00EB80004FF43E
:10074000400101EA50004FEA9059B9F1010F00DD74
:10075000B9460A9850EA4A000ED044F61050A5F265
:10076000FF3545432F14B8F1000F1ED07542291EE6
:100770001EDDC9F100021CE0B8F1010F4FF00000CE
:1007800001D0302103E0F24305E02154401CB04287
:10079000FBDB30460022002121540B99C1F8088070
:1007A000C1E900200FB0BDE8F08FBD1B6D1CDEE776
:1007B0004A4600DA694206A800F092FA06AB93E8CE
:1007C000070003AB83E8070050460A9900F06CFB72
:1007D0008DE80700A0F500501F3800900398002D09
:1007E0000ADD42F21F014A460844002303A9039090
:1007F000684600F0D5FD09E0A0F500504A461F38D4
:10080000002303A90390684600F0DFFD8DE8070090
:100810000004000C03D04FF0FF30410800E0104608
:10082000B8F1000F03D00022009215461EE0751E9D
:1008300005D400F0CFF9303262556D1EF9D5B346BC
:100840000122084302D000227F1C04E020783028D7
:1008500001D100227F1E002A099784D01DE0112DAE
:1008600007DA00F0B7F9303262556D1C50EA010228
:10087000F5D1084302D00098C8B10EE00021681EEF
:1008800005E0235C625C63542254401E491C814293
:10089000F7DBAB46A81B401E0990002004F80B00B4
:1008A0000B98099AC0F80880C0E9002B7AE7112656
:1008B0004FF0000857E72DE9F04F88460446D21D57
:1008C00022F0070191B0D1E90001CDE90A0102F05F
:1008D0006AFB02460B98C00F01D02D2007E020686C
:1008E000810701D52B2002E0202101EAC000032A64
:1008F000099001D0072A05DB03464146204600F057
:10090000AFF90BE12078800601D5E06900E0062010
:10091000B8F1650F814606D0B8F1660F18D0B8F16E
:10092000670F70D131E00020B9F1110F009001DBA9
:10093000112301E009F101030AAA01A90CA8FFF79C
:10094000E2FEDDE90C70002609F10105834647E06F
:1009500001204B4600904FF000470AAA01A90CA8BD
:10096000FFF7D1FEDDE90DB00C995D46002610B908
:1009700009F101000D18B9EB050003D4C0F1FF36F1
:1009800009F10105A5EB09002BE0B9F1010F01DA2E
:100990004FF001090020B9F1110F0090484601DD28
:1009A000112300E003460AAA01A90CA8FFF7ABFE39
:1009B000DDE90C704D4600268346207800070AD4F6
:1009C000AB4500DA5D4601A8012D04DD411911F89F
:1009D000011C302907D04F4502DA17F1040F04DA61
:1009E000012082460FE06D1EEEE7002F02DCED1BBA
:1009F0003E4403E0781CA84200DD7D1CB81B00F1DA
:100A0000010A4FF000472078000703D4AA4501DB14
:100A10004FF0FF3A0021B7F1004F0DF143088DF878
:100A2000431024D002202B23002F01DA7F422D23F4
:100A30000A21021EA0F1010000DC5FB197FBF1FC6E
:100A400097FBF1F201FB1C7C17460CF1300C08F807
:100A500001CDEEE7A8F1010003702188090501D559
:100A6000452100E06521A0F1010800F8011C09986A
:100A70000FA9A1EB0807FF1D00B10120411901EBEF
:100A8000EA70A1693844081A401EA0612078C006A7
:100A900002D42046AFF30080099828B1D4E901219F
:100AA0009047206A401C20622078C00622D520464C
:100AB000AFF300801EE0002E04DBB34502DD01A889
:100AC000805D00E03020D4E901219047206A401C7D
:100AD0002062761CAAF101005FEA000A0AD100F048
:100AE00071F8C0680168405CD4E901219047206A30
:100AF000401C2062281EA5F10105DCDC07E0D4E9DA
:100B0000012118F8010B9047206A401C2062381E12
:100B1000A7F10107F3DC2046AFF30080032011B0FA
:100B200041E6000001694A1C02610878704700B57F
:100B30008FB0CDE901310021059105497944CDE916
:100B4000031011466846FFF7DFFB0FB000BD000041
:100B5000E5FFFFFF074B70B50D467B44FFF7E7FF4E
:100B60000446284600F02EF910B14FF0FF3070BD5A
:100B7000204670BD033900004FF000020429C0F088
:100B8000128010F0030C3FF4B9ACCCF1040CBCF1B2
:100B9000020F18BF00F8012BA8BF20F8022BA1EB11
:100BA0000C01FFF7ABBC5FEAC17C24BF00F8012B4E
:100BB00000F8012B48BF00F8012B70470048704730
:100BC0001C050020004870473C0500200048704785
:100BD0001C05002030B5B0F10A024FEA900E71F109
:100BE00000034EEA817EB0EB0E0061EB91014FEA0B
:100BF000101E4EEA017E10EB0E0041EB11114FEA80
:100C0000102E4EEA016E10EB0E0041EB11214FEA5F
:100C1000104E4EEA014E10EB0E0041EB1141401810
:100C200041F100014FEAD00040EA41704FEAD101A2
:100C300010EB80054FEA810444EA907444EB010410
:100C40006D1944EB0404521BA3414FF0000348BF4D
:100C50000A3200D530BD401C41F1000130BD00001A
:100C60002DE9F0411F46044603260168072A01F4D6
:100C7000006004DB08B116A505E016A503E008B185
:100C800015A500E015A521F010002060A069C01E88
:100C9000A0610FB1401EA0612046AFF300804FB1AC
:100CA000D4E9012138469047206A401C2062C01CCC
:100CB000206206E0206AFAE7D4E9012115F8010B69
:100CC0009047761EF8D22046AFF30080BDE8F08151
:100CD0004E414E006E616E00494E4600696E6600E0
:100CE0002DE9F047814616468AB0354878440DC84C
:100CF0008DE80D0032487844801C03AC0DC884E8B0
:100D00000D0041F69B300844372190FBF1F290FB37
:100D1000F1F5A5F1800501FB12041B3C02D56442EC
:100D2000012000E00020DFF898A080460027FA4468
:100D3000AAF1BE0A0EE0E0070AD03246684607EB89
:100D4000470101230AEB810100F03FFB8DE807001A
:100D500064107F1C002CEED1194F7F44AE3F19E088
:100D6000E80715D007EB04100DF1180A90E80E0003
:100D70008AE80E00C068F04201D198190890324606
:100D8000012306A903A800F020FB03AB83E80700BA
:100D90006D10641C002DE3D14FF00103324669460B
:100DA000B8F1000F03A802D000F0FAFA01E000F059
:100DB0000CFBC9E90001C9F808200AB0BDE8F087BA
:100DC00034750000007B00F0800070477546FFF727
:100DD000F5FEAE4605006946534620F007008546FD
:100DE00018B020B5FFF710FABDE820404FF000061C
:100DF0004FF000074FF000084FF0000B21F0070103
:100E0000AC46ACE8C009ACE8C009ACE8C009ACE845
:100E1000C0098D46704710B50446AFF300802046E8
:100E2000BDE81040FFF7DBB94FF0013C50F8042B50
:100E300051F8043B9A4221D1A2EB0C03934313EAED
:100E4000CC1317D150F8042B51F8043B9A4215D11A
:100E5000A2EB0C03934313EACC130BD150F8042BF1
:100E600051F8043B9A4209D1A2EB0C03934313EAD5
:100E7000CC13DBD04FF00000704700BFD01A01BA8E
:100E8000B1FA81F101F0180122FA01F0CB40C1F171
:100E90002001DBB2C0B2C01A2CFA01F3D11A91437F
:100EA00011EAC311E6D170475FEA400C08BF91F028
:100EB000000F4FEA8C234FEAC12243EA51514FEA17
:100EC0001C5018BF00F5F0404FEA300018BF41F049
:100ED00000415FEA6C5C00F02980BCF1FF3F08BF75
:100EE00040F080407047130C06BF12044FF0100C06
:100EF0004FF0000C130E04BF12020CF1080C130F7C
:100F000004BF12010CF1040C930F04BF92000CF10A
:100F1000020CD30F04BF52000CF1010C11464FF02C
:100F20000002A0F11F00A0EB0C00704711F0004F71
:100F300008BF704731F000413FF4D5AF0B0C06BF3E
:100F400009044FF0100C4FF0000C0B0E04BF090207
:100F50000CF1080C0B0F04BF09010CF1040C8B0FF2
:100F600004BF89000CF1020CCB0F04BF49000CF147
:100F7000010CCCF12003A0EB0C0022FA03F302FADF
:100F80000CF241EA030100F10100704720F07F4CB0
:100F900080EA030023F07F47ACEB070303F57C53A3
:100FA00000F0004003F1FF032DE980494FEA154BA3
:100FB00009B44FEA144325EA0B4E24EA03480FF222
:100FC000042606EB132749083E785FEA320203FB4A
:100FD0000667C7F5000707FB06F64FEA54374FEAE6
:100FE000D64606F1020607FB066CCCF1005C4FEA20
:100FF0001C472CEA074C07FB06F40CFB06F504EB38
:1010000015464FEA961634BF00204FF000404FEAD5
:10101000D13706FB07FC4FEA1C4C0CFB0BF7D21B2D
:1010200003FB0CF761EB07010CFB0EF7B0EB07407D
:1010300072EB17420CFB08F734BFA2EB0742B2EB8E
:10104000074261EB17414FEA0C444FEA910706FB58
:1010500007FC4FEA1C4C0CFB0BF7B0EBC74072EBE4
:10106000573203FB0CF734BFA2EBC742B2EBC742C7
:1010700061EB57310CFB0EF7B0EBC70072EB577208
:101080000CFB08F734BFA2EBC702B2EBC70261EB5F
:101090005771039F4FEA816141EA921104EBCC043E
:1010A0004FEAD1374FEA826206FB07FC42EA901210
:1010B0004FEA80604FEA1C4C0CFB0BF7D21B03FB82
:1010C0000CF761EB07010CFB0EF7B0EB074072EB7E
:1010D00017420CFB08F734BFA2EB0742B2EB074202
:1010E00061EB17414FEA8C554FEA910704EB9C24C2
:1010F00006FB07FC4FEA1C4C0CFB0BF7B0EBC740A0
:1011000072EB573203FB0CF734BFA2EBC742B2EBD2
:10111000C74261EB57310CFB0EF7B0EBC70072EB27
:1011200057720CFB08F734BFA2EBC702B2EBC70241
:1011300061EB577115EB4C254FEA816141EA921141
:101140004FEA82624FEAD13742EA901206FB07FC6F
:1011500044F100044FEA80604FEA1C4C0CFB0BF793
:10116000D21B03FB0CF761EB07010CFB0EF7B0EB96
:10117000074072EB17420CFB08F734BFA2EB0742A3
:10118000B2EB074261EB174115EB1C154FEA8131B9
:1011900041EA92414FEA823242EA90424FEA80307D
:1011A0004FEA0C7644F1000448EA03434EEA0B4848
:1011B0004FF0000EB2EB080C71EB030724BF624640
:1011C00039464EEB0E0E4FF0000B001852414941CC
:1011D0004BEB0B0BB2EB080C71EB03077BF1000B35
:1011E00024BF624639464EEB0E0E4FF0000B00183E
:1011F000524149414BEB0B0BB2EB080C71EB03076F
:101200007BF1000B24BF624639464EEB0E0E51EACD
:10121000020718BF46F0010616EB0E7655F10002E4
:1012200054F1000103D5BDE88901BDE80088BDE89F
:101230008901BDE80048B619524141EB0101A3F113
:101240000103704780807F7E7D7C7B7A797877761A
:1012500076757473727171706F6E6E6D6C6C6B6A93
:101260006A69686867666665646463636261616031
:10127000605F5F5E5E5D5D5C5C5B5B5A5A595958AE
:101280005857575656555555545453535252525118
:10129000515050504F4F4F4E4E4D4D4D4C4C4C4B6E
:1012A0004B4B4A4A4A4949494848484747474746B5
:1012B00046464545454444444443434343424242F1
:1012C00042414141002B9C4630D477002BD01CB5C5
:1012D0004FEA370703B44FF010004FF01001BAF196
:1012E000000F06D0BCF1000FDCBF40F0080040F05A
:1012F00008014FF000000FBCBDE810400BF1010BDE
:10130000BBF1010F08BF5FEA170722BF12F101020C
:1013100011F101014FF0004143F1000300F00040E2
:1013200043EA00007047F9D35708D0E746EA06467B
:1013300013F1400F4FEA16461FDD13F1200FDFBFF8
:1013400016430A46002120335B42BED0C3F120077A
:1013500046EA064602FA07F74FEA164646EA070645
:10136000C3F1200722FA03F201FA07F721FA03F189
:101370004FF0000342EA0702A7E746EA020646EA00
:1013800006464FEA164646EA0106BCBF46EA06464E
:10139000360C4FF000034FF000024FF0000194E7CD
:1013A0002DE9804C9A46934670B491E8380007C8FE
:1013B00031EA400C48BF34EA430C03D5FFF7E6FDA1
:1013C000FFF780FFF0BCBDE8008C2DE9804C9A4609
:1013D000934670B491E8380007C810F0804F08BFFA
:1013E00013F0804F03D100F005F8FFF76BFFF0BC5E
:1013F000BDE8008C20F07F4780EA030023F07F4C9B
:1014000007EB0C03A3F57C5300F00040A3F1FE03AF
:1014100092F0000F00F0B38095F0000F00F077809D
:101420002DE901494FEA11404FEA144621EA0048EC
:1014300000FB06FC24EA064708FB06F607FB08F853
:1014400000FB07F718EB06484CEB164C4FEA124B23
:1014500018EB07484FEA15464CEB174022EA0B4EB3
:101460000BFB06FC25EA06470EFB06F607FB0EFE05
:101470000BFB07F71EEB064E4CEB164C4FF000062D
:101480001EEB074E4CEB174B18EB0B0840F100001E
:1014900018EB0E0B58EB000840F100008F1A4FF0CC
:1014A00000013CBFC943661B14BFB5EB040C00210F
:1014B0003CBFC943F61B4FEA17444EEA8E0E27EA9B
:1014C00004454FEA1C4704FB07622CEA074C05FB66
:1014D00007F70CFB05F604FB0CFC16EB074642EB8A
:1014E000174216EB0C4642EB1C421BEB060658EB70
:1014F0000202414146EA9E0601D5BDE80189B619BE
:10150000524141EB0101A3F10103BDE801894FEA1A
:1015100014454FEA114724EA054621EA074C05FB2A
:1015200007F406FB07F70CFB06F105FB0CFC11EBBF
:10153000074144EB17444FEA124711EB0C4144EBCF
:101540001C4422EA074C05FB07F206FB07F70CFBDD
:1015500006F605FB0CFC16EB074642EB174216EBB2
:101560000C4642EB1C456A1854F1000148BF704715
:10157000B619524141EB0101A3F10103704795F007
:10158000000F37D04FEA11424FEA144721EA0246D2
:1015900024EA074C02FB07F106FB07F70CFB06F4F5
:1015A00002FB0CFC14EB074441EB17414FEA1547D3
:1015B00014EB0C4441EB1C4125EA074C02FB07F5F8
:1015C00006FB07F70CFB06F602FB0CFC16EB0746C6
:1015D00045EB174516EB0C4645EB1C42121951F131
:1015E000000148BF7047B619524141EB0101A3F118
:1015F000010370474FEA14454FEA114724EA0546B4
:1016000021EA074C05FB07F106FB07F70CFB06F286
:101610004FF0000605FB0CFC12EB074241EB1741B3
:1016200012EB0C4251EB1C4148BF7047921841EB42
:101630000101A3F10103704721B1826842F0010268
:10164000826003E0826822F001028260704721B16B
:10165000826842F48072826003E0826822F48072C1
:101660008260704721B1826842F48012826003E098
:10167000826822F4801282607047000008B5012160
:101680004FF4017001F06EF80220ADF80000002068
:101690008DF803006946094800F067FB01214FF40B
:1016A000826001F05FF80120ADF8000000208DF8A5
:1016B00003006946024800F058FB08BD00080140DD
:1016C00000100140014600208A6802F004020AB1BD
:1016D000012000E0002070470146C86C80B27047CE
:1016E0000246002013680B400BB1012000E00020EF
:1016F0007047014600208A6802F008020AB1012002
:1017000000E000207047000030B5024600200023B2
:1017100050680F4C20400D790C6844EA05242043A2
:10172000506090680B4C2040D1E902542C434D7915
:1017300044EA450420439060D06A20F470000C7C99
:10174000641EE4B2234340EA0350D06230BD00007F
:10175000FFFEF0FFFDF7F1FFF0B504460D46002057
:101760000021092D11DDE068A5F10A0606EB460708
:10177000072606FA07F18843A5F10A0606EB460696
:1017800003FA06F10843E0600CE0206905EB450729
:10179000072606FA07F1884305EB450603FA06F12A
:1017A00008432061072A0FDA606B561E06EB860796
:1017B0001F2606FA07F18843561E06EB860605FA31
:1017C00006F10843606322E00D2A0FDA206BD61F72
:1017D00006EB86071F2606FA07F18843D61F06EB9D
:1017E000860605FA06F10843206310E0E06AA2F1DC
:1017F0000D0606EB86071F2606FA07F18843A2F1BD
:101800000D0606EB860605FA06F10843E062F0BD18
:10181000816841F008018160704721B1826842F41B
:10182000A002826003E0826822F4A0028260704716
:10183000816841F0040181607047000000B591B0FB
:101840000121084600F06EFF534800F0C9F95348E3
:10185000069053480790002008900120099000202E
:101860000A900B904FF400700C900D9020200E9079
:1018700000020F900020109006A9474800F056FA89
:101880000121454800F0A0F901214FF4017000F05A
:1018900069FF4FF4004000F039FF4FF4C020019081
:1018A00000208DF8080001208DF809004FF4602019
:1018B00003900020049001208DF8140001A93748FE
:1018C0004C38FFF721FF07230122114633484C38DB
:1018D000FFF742FF012131484C38FFF7B8FE0121E4
:1018E0004FF4826000F03EFF4FF4C02001900020D2
:1018F0008DF8080001208DF80900C0040390002035
:10190000049001208DF8140001A92648FFF7FCFE81
:10191000072301220A212348FFF71EFFFFF7AEFE2F
:1019200001211E484C38FFF787FE1C484C38FFF752
:101930006FFF00BF19484C38FFF7DBFE0028F9D1D4
:1019400016484C38FFF774FF00BF14484C38FFF7B7
:10195000B9FE0028F9D101211248FFF76DFE1148A8
:10196000FFF756FF00BF0F48FFF7C3FE0028FAD16C
:101970000C48FFF75DFF00BF0A48FFF7A3FE0028F1
:10198000FAD101210748FFF76DFE012103484C38C9
:10199000FFF743FF11B000BD080002404C24014096
:1019A000500000200028014000BFFEE708B50A21D2
:1019B000012000F0C9FA1849088040F6E4400023ED
:1019C00040F6FF72194600901348008803F0AAF908
:1019D0001249086008460068642803DA00201049AC
:1019E000086017E00D48006840F6E441884204DDD5
:1019F00041F270700A4908600CE041F270700023F7
:101A000040F6E442642100900448006803F08AF93B
:101A10000349086008BD0000F0000020F800002025
:101A2000F40000202DE9F0415D48007801287CD1C8
:101A30005C48B0F90000002805DA5A4800884042A6
:101A400000B2584908805748B0F900000A2190FBBD
:101A5000F1F201FB1207384605F0B2FA0646524988
:101A600005F07CF904464F48B0F90000642190FB72
:101A7000F1F6304605F0A4FA0546214605F000F9D6
:101A80004A49086048494A48006805F0F9FA04469E
:101A900005F05AFA00B2434908800846B0F9000040
:101AA000002804DA08460088404200B208803D4819
:101AB000B0F900000A2190FBF1F03A49B1F90010A9
:101AC0000A2291FBF2F302FB13114518284605F098
:101AD00077FA0446344905F041F93649086032493D
:101AE0003548006805F0CCFA044605F02DFA00B23E
:101AF0002C4908800846B0F90000002804DA08469E
:101B00000088404200B208802648B0F900000A214F
:101B100090FBF1F02349B1F900100A2291FBF2F396
:101B200002FB13114518284600E037E005F048FA9B
:101B300004461D4905F012F9204908601A49204859
:101B4000006805F09DFA044605F0FEF900B215495B
:101B500008800846B0F90000002804DA084600882A
:101B6000404200B208800F48B0F900000A2190FB03
:101B7000F1F00C49B1F900100A2291FBF2F302FBDB
:101B800013114518284605F01BFA0446064905F0CE
:101B9000E5F80C490860002001490870BDE8F081B3
:101BA000BC000020E400002000002041E8000020EC
:101BB000C0000020CC000020C8000020D40000207D
:101BC000C4000020D000002021B1026842F00102D0
:101BD000026004E002684FF6FE731A40026070472C
:101BE00001684FF6FE721140016000210160416002
:101BF0008160C1604B49884208D14A490839496827
:101C000041F00F01474A083A51608AE045491431D2
:101C1000884208D143490839496841F0F001414AF6
:101C2000083A51607DE03F492831884208D13D495A
:101C30000839496841F470613A4A083A516070E0E5
:101C400038493C31884208D136490839496841F45D
:101C50007041344A083A516063E032495031884259
:101C600008D130490839496841F470212D4A083AB1
:101C7000516056E02B496431884208D1294908391E
:101C8000496841F47001274A083A516049E0254902
:101C90007831884208D123490839496841F0706198
:101CA000204A083A51603CE01F49884206D1011F92
:101CB000096841F00F01021F116032E01A49143126
:101CC000884208D11849091F096841F0F001164AF5
:101CD000121F116025E014492831884208D11249A9
:101CE000091F096841F470610F4A121F116018E062
:101CF0000D493C31884208D10B49091F096841F45C
:101D00007041094A121F11600BE0074950318842A7
:101D100007D10549091F096841F47021024A121FC1
:101D200011607047080002400804024010B500220C
:101D3000026847F6F0739A430C6A8B6823430C6978
:101D400023434C6923438C692343CC6923434C6A66
:101D500023438C6A23431A430260CB6843600B68B9
:101D600083604B68C36010BD70472DE9F0410246A7
:101D700000250026002000230024002791F803C03E
:101D80000CF00F0591F803C00CF0100CBCF1000F23
:101D900003D091F802C04CEA050591F800C0BCF1EF
:101DA000000F31D0146800202BE04FF0010C0CFA2A
:101DB00000F3B1F800C00CEA03069E4220D1830074
:101DC0004FF00F0C0CFA03F7BC4305FA03FC4CEA86
:101DD000040491F803C0BCF1280F06D14FF0010CA8
:101DE0000CFA00FCC2F814C00AE091F803C0BCF180
:101DF000480F05D14FF0010C0CFA00FCC2F810C0DE
:101E0000401C0828D1D31460B1F800C0BCF1FF0F0A
:101E100034DD546800202EE000F1080C4FF001087A
:101E200008FA0CF3B1F800C00CEA03069E4221D177
:101E300083004FF00F0C0CFA03F7BC4305FA03FCC8
:101E40004CEA040491F803C0BCF1280F05D100F15D
:101E5000080C08FA0CF8C2F8148091F803C0BCF121
:101E6000480F07D100F1080C4FF0010808FA0CF8F0
:101E7000C2F81080401C0828CED35460BDE8F08121
:101E8000F0B50A46002300240021002500F000469A
:101E9000B6F1004F02D11D4EF16901E01B4E716891
:101EA000C0F3034583B200F44016B6F5401F08D1D5
:101EB00021F07061154E766826F07066134F7E60D3
:101EC00012E000F48016B6F5801F06D1032606FA4C
:101ED00005F4A14341F0706106E0460D360103FAB6
:101EE00006F6B14341F0706122B1460D360103FAA6
:101EF00006F6314300F00046B6F1004F02D1034E22
:101F0000F16101E0014E7160F0BD00000000014090
:101F10000161704710B50446072301222146094894
:101F2000FFF71AFC01210748FFF777FC00BF0221E9
:101F30000448FFF7D5FB0028F9D00248FFF7CCFB97
:101F400010BD0000002401402DE9F04107460C4679
:101F50000025002608E03846FFF7DCFF0544052091
:101F600001F058FC701CC6B2A642F4DBB5FBF4F0DD
:101F700080B2BDE8F08100BFFEE7000008B5012196
:101F8000482000F0EFFB2020ADF8000010208DF875
:101F9000030003208DF8020069460948FFF7E5FEBB
:101FA00020210748FFF7B4FF2020ADF80000694664
:101FB0000448FFF7DAFE20210248FFF7A9FF08BD19
:101FC000000C0140001801402DE9FC4104460D467B
:101FD00016466B4606223B21682000F07AFA074637
:101FE000BFB99DF801009DF8001040EA012000B241
:101FF00020809DF803009DF8021040EA012000B205
:1020000028809DF805009DF8041040EA012000B2E8
:1020100030803846BDE8FC812DE9FC4104460D4680
:1020200016466B4606224321682000F052FA074606
:10203000BFB99DF801009DF8001040EA012000B2F0
:1020400020809DF803009DF8021040EA012000B2B4
:1020500028809DF805009DF8041040EA012000B298
:1020600030803846BDE8FC812DE9F84F6B460222EE
:102070004121682000F02DFA9DF801009DF8001024
:1020800040EA01200FFA80FA504604F0DBFA80465D
:1020900000220B4B04F07EF906460A4A0A4B04F074
:1020A000C9F8044604F094F883460849584604F0F9
:1020B000E7FF044604F048FF00B2BDE8F88F0000D7
:1020C00000407540A4703D0AD74342400000C8421A
:1020D00010B500200E4908600E48406820F470409A
:1020E0000C4948600846406840F440504860002071
:1020F0000949C1F8AC0100F011F801200449086059
:1021000000F00CF800200449C1F8B00110BD000037
:10211000B0012242001001400000224210B502200E
:1021200001F09EFB10BD000008B50121102000F059
:1021300019FB4FF4C050ADF8000010208DF80300DB
:1021400003208DF8020069460448FFF70EFE4FF4A5
:10215000C0510248FFF7DCFE08BD0000001001403E
:1021600010B500200E4908600E48406820F4704009
:102170000C4948600846406840F4405048600120DF
:102180000949C1F8AC01FFF7C9FF01200449086003
:10219000FFF7C4FF00200449C1F8B00110BD0000E2
:1021A000B0012242001001400000224270B50546F5
:1021B00000241648406820F47040144948600846DE
:1021C000406840F400404860002614E000201049B8
:1021D0000860FFF7A3FF01200E49C1F8B0016006B7
:1021E000040E0B488438006808B1601CC4B2FFF7C5
:1021F00095FF701CC6B2082EE8DB15B9FFF7B0FFDB
:1022000001E0FFF765FF204670BD000000100140AF
:10221000B00122420000224270B5044612484068D4
:1022200020F47040104948600846406840F440502F
:10223000486000200D490860002512E0E0090B49C4
:10224000091F08606006040E01200949C1F8B001A9
:10225000FFF764FF002005490860FFF75FFF681C77
:10226000C5B2082DEADB70BD00100140B00122426A
:102270000000224210B50E48406820F470400C491E
:1022800048600846406840F44050486001200949D1
:1022900008600949C1F8B001FFF740FF0020054977
:1022A0000860FFF73BFF00200349C1F8B00110BDF3
:1022B00000100140AC0122420000224210B50E483D
:1022C000406820F470400C4948600846406840F47B
:1022D000405048600020094908600949C1F8AC0134
:1022E000FFF71CFF0120054908600549C1F8AC0152
:1022F000FFF714FF10BD000000100140B0012242A2
:102300000000224210B500241448406820F47040B8
:10231000124948600846406840F400404860012087
:102320000F490860FFF7FAFE01200E49C1F8B0011D
:10233000FFF7F4FE07E0601CC4B2FA2C03DDFFF7E0
:10234000BDFF012010BD0648803800680028F2D18A
:102350000349091D086000BFF4E7000000100140B8
:10236000AC0122420000224238B50121052000F0D4
:10237000F9F94FF40040ADF8000010208DF803008B
:1023800003208DF8020069462248FFF7EEFC012188
:102390002148FFF775FD002020490860FFF7C4FEC3
:1023A00080216B2000F019F9642001F033FA00213C
:1023B0006B2000F012F9032000F0CDF8002000F0AF
:1023C000C2F8322000F0ECF80021382000F005F9C6
:1023D00000216A2000F001F90021232000F0FDF81F
:1023E0008021372000F0F9F8752000F055F80446F8
:1023F000682C0BD101216B2000F0EFF800216C203C
:1024000000F0EBF8322000F0CBF801E0012038BDFD
:102410000020FCE70008014000023000BC0121421E
:1024200010B5124A1249134802F0C0FCD0B9FFF7A8
:102430001BFE11490880114A11491248FFF7C4FDDB
:10244000114A12491248FFF7E7FD12484078401C34
:102450001049487008464078012806D108700020CD
:10246000487002E000200B49087010BDC800002031
:10247000C4000020C0000020E4000020DC00002098
:10248000DA000020D8000020E2000020E000002058
:10249000DE000020BC00002070B50446FFF7EAFE15
:1024A000D020FFF7B9FEFFF72DFF2046FFF7B4FE5F
:1024B000FFF728FFFFF7DEFED120FFF7ADFEFFF7A5
:1024C00021FF0020FFF772FE0546FFF7F7FE2846C2
:1024D00070BD2DE9F04106460F4614461D46FFF734
:1024E000C9FE002141EA4601C8B2FFF795FEFFF799
:1024F00009FF20B1FFF7E2FE0120BDE8F081384678
:10250000FFF78AFEFFF7FEFEFFF7B4FE012101EBA5
:102510004601C8B2FFF780FEFFF7F4FE0DE0012C84
:1025200004D10020FFF742FE287003E00120FFF7EE
:102530003DFE2870601EC4B26D1C002CEFD1FFF769
:10254000BDFE0020D9E710B50446E006010E1C20B0
:1025500000F043F810BD10B50446E006010E1B2044
:1025600000F03BF810BD70B504460025BC2C01DB23
:10257000012510E0622C01DB02250CE02A2C01DB96
:10258000032508E0142C01DB042504E00A2C01DB00
:10259000052500E0062529461A2000F01EF870BD2A
:1025A00070B50446B4F57A7F01DD4FF47A74042CDB
:1025B00000DA04244FF47A7090FBF4F0401EC5B2A8
:1025C0002946192000F009F80546264604EBD67185
:1025D000C1F34F00FFF7C7FF70BD70B505460C464D
:1025E000FFF748FED020FFF717FEFFF78BFE18B16C
:1025F000FFF764FE012070BD2846FFF70DFEFFF7D0
:1026000081FE2046FFF708FEFFF77CFE18B1FFF7BA
:1026100055FE0120EFE7FFF751FE0020EBE72DE923
:10262000F04105460E4617469846FFF723FE002167
:1026300041EA4501C8B2FFF7EFFDFFF763FE20B1A5
:10264000FFF73CFE0120BDE8F0813046FFF7E4FDD6
:10265000FFF758FE00240CE018F80400FFF7DCFD3B
:10266000FFF750FE18B1FFF729FE0120EBE7601CD1
:10267000C4B2BC42F0DBFFF721FE0020E3E700BF5D
:10268000FEE7704770B5002100230F22C47804B321
:10269000154C246804F4E064C4F5E064210AC1F137
:1026A0000403CA40447804FA03F1847814402143B7
:1026B00009010E4C0678A155047804F01F05012489
:1026C000AC4005786D11AD0005F1E025C5F800417D
:1026D00009E0047804F01F050124AC40044D06789D
:1026E000761145F8264070BD0CED00E000E400E0F6
:1026F00080E100E002490143024A11607047000096
:102700000000FA050CED00E07047000001460020D3
:10271000034A506820F4404008435060704700006E
:102720000010024029B1064A52690243044B5A6123
:1027300004E0034A52698243014B5A61704700002A
:102740000010024029B1064AD2690243044BDA6103
:1027500004E0034AD2698243014BDA61704700000A
:102760000010024029B1064A92690243044B9A6163
:1027700004E0034A92698243014B9A61704700006A
:102780000010024030B500210022002400232D4D0E
:102790006D6805F00C0121B1042905D0082923D169
:1027A00005E0294D056022E0274D05601FE0254D1D
:1027B0006D6805F47012234D6D6805F480340225B0
:1027C00005EB92421CB9214D554305600BE01D4DB0
:1027D0006D6805F400351DB11C4D5543056002E0E0
:1027E000194D5543056002E0174D056000BF00BF5D
:1027F000144D6D6805F0F0010909154D6B5C056815
:10280000DD4045600F4D6D6805F4E061090A104D2B
:102810006B5C4568DD4085600A4D6D6805F460516C
:10282000C90A0B4D6B5C4568DD40C560054D6D68A0
:1028300005F44041890B074D6B5CC568B5FBF3F5AA
:10284000056130BD0010024000127A0000093D0011
:102850003A0000204A000020704710B500F002F84E
:1028600010BD00000CB500200190009033480068B6
:1028700040F480303149086000BF3048006800F4FF
:10288000003000900198401C0190009818B9019800
:10289000B0F5A06FF1D12948006800F4003010B104
:1028A0000120009001E0002000900098012843D111
:1028B0002348006840F0100021490860084600687D
:1028C00020F0030008600846006840F0020008603D
:1028D0001A484068194948600846406848600846F8
:1028E000406840F4806048600846406820F47C10EE
:1028F00048600846406840F4E810486008460068B0
:1029000040F08070086000BF0C48006800F0007064
:102910000028F9D00948406820F0030007494860C2
:102920000846406840F00200486000BF0348406825
:1029300000F00C000828F9D10CBD00000010024086
:1029400000200240042808D14FF0E021096941F03D
:1029500004014FF0E022116107E04FF0E021096926
:1029600021F004014FF0E022116170477047000030
:1029700010B51348006840F001001149086008468E
:102980004068104908400E494860084600680E49F2
:1029900008400B4908600846006820F48020086061
:1029A0000846406820F4FE0048604FF41F0088602D
:1029B000FFF753FF4FF000600449086010BD0000AE
:1029C000001002400000FFF8FFFFF6FE08ED00E0F7
:1029D0002DE9F04100260121774800F05BF900283D
:1029E0007ED000277548FEF777FE07463846F91770
:1029F00007EB91718910724A116072480068801C5F
:102A000070490860084600886F490988401A85B2F5
:102A1000104600686D490968884212DA6C480068FF
:102A2000052190FBF1F000EB4000A84209DA1046C6
:102A3000006868490968884203DA104600686549F9
:102A400008605F48006861490968884209DD5C48A0
:102A5000006861490968884203DD594800685E4999
:102A60000860FA2D63DD56480068584909688842B5
:102A70005DDD5A480078002859D155480068052185
:102A800090FBF1F000EB4000A84250DA01205349DE
:102A900008704C4800684C490968401A4C49086065
:102AA00048480068484908604D48007868B10020EF
:102AB0004B490870002406E045480068494941F840
:102AC0002400601CC4B2092CF6DD4748007840B1F0
:102AD000002045490870012041490870BDE8F08197
:102AE00063E000240CE03F49601C51F8200041F8ED
:102AF0002400084630F82400304486B2601CC4B27A
:102B0000082CF0DD32480068364948620846808C5F
:102B1000304486B20A2096FBF0F086B24EF6602072
:102B200090FBF6F0314908600120314908702448D3
:102B300000682649096888421EDA2848007801287A
:102B40001AD10020254908702348006821490968E6
:102B5000401A28490860086800EBD0711D4A1268C5
:102B600002EB6101194A1160104600681A490860B9
:102B7000104600681749086040F6C410854213DD0E
:102B80004FF400701149086013490860114908604A
:102B90000C4800680C4908600120134908700020A7
:102BA0000F4908701249087000BF0121024800F067
:102BB00062F800BF92E700000004004000280140D6
:102BC0005C000020680000206C00002078000020DD
:102BD00060000020740000207000002064000020CD
:102BE00081000020E4040020800000205800002024
:102BF000650000207C0000207FB505460C460121C1
:102C00000220FFF79FFDADF80850ADF8044000200A
:102C1000ADF80A00ADF8060001A9144800F05EF80E
:102C20002021124800F050F80121104800F020F84F
:102C3000012211460D4800F03EF801210B4800F03A
:102C40001DF81D208DF8000000208DF801000320E4
:102C50008DF8020001208DF803006846FFF712FD91
:102C600000210220FFF76EFD7FBD00000004004040
:102C7000CA4302827047CA430282704721B1028868
:102C800042F00102028004E002884FF6FE731A400F
:102C90000280704730B50246002000230024158AC8
:102CA00005EA0103958905EA010413B10CB101207D
:102CB00000E0002030BD1AB183890B43838102E01C
:102CC00083898B438381704782884FF68F731A40C4
:102CD000828082880A438280704700000022028836
:102CE0001D4B98420ED01D4B98420BD0B0F1804F37
:102CF00008D01B4B984205D01A4B984202D01A4B71
:102D0000984204D14FF68F731A404B881A43174BE1
:102D1000984207D0164B984204D04FF6FF431A4012
:102D2000CB881A4302808B8883850B8803850A4BE6
:102D300098420BD0094B984208D00E4B984205D0D0
:102D40000D4B984202D00D4B984201D10B7A03866D
:102D50000123838270470000002C014000340140B1
:102D60000004004000080040000C0040001000403B
:102D70000014004000400140004401400048014070
:102D800010B540F225511D4800F04AF810B31B4819
:102D900000F002F9C4B21A48008800F40040C8B933
:102DA0001748008800F4804060B10A2C03D000204E
:102DB0001349088021E01248008840F4004010497F
:102DC00008801AE00D2C06D10D48008840F48040A0
:102DD0000B49088011E00A480088C0F30D0009493A
:102DE0000C5407480088401C0549088008460088A4
:102DF000B0F57A7F01DB0020088010BD003801406B
:102E000038000020FC00002021B1828942F40052E9
:102E1000828104E082894DF6FF731A4082817047F7
:102E200070B50246002400230025002040F66A16F3
:102E3000B14200D100BFC1F3421501F01F030126CA
:102E400006FA03F3012D02D19689334006E0022DE4
:102E500002D1168A334001E0968A33400C120126D3
:102E600006FA04F41688344013B10CB1012000E0D6
:102E7000002070BDF0B50346002400260025002088
:102E800040F66A17B94200D100BF1846C1F3421498
:102E900001F01F06012707FA06F5012C01D10C30BD
:102EA00004E0022C01D1103000E014301AB10768A0
:102EB0002F43076002E00768AF430760F0BD0000E2
:102EC0002DE9F04786B005460E460024A24600BF15
:102ED000A1460027B08900B100BF2F462C8A4CF6CE
:102EE000FF700440F08804432C82AC894EF6F31046
:102EF0000440B08831890843718908430443AC8198
:102F0000AC8A4FF6FF400440B0890443AC8201A86C
:102F1000FFF738FC1F48874202D1DDF810A001E01E
:102F2000DDF80CA0A88900F4004040B10AEBCA000B
:102F300000EB0A1031684900B0FBF1F807E00AEB3A
:102F4000CA0000EB0A1031688900B0FBF1F8642078
:102F5000B8FBF0F004012009642101FB1089A88965
:102F600000F4004040B1322000EBC900B0FBF1F0AA
:102F700000F00700044308E0322000EB0910642150
:102F8000B0FBF1F000F00F0004432C8106B0BDE867
:102F9000F08700000038014001468888C0F308002F
:102FA000704700BFFEE7490050EAC12018BF042067
:102FB0004A0D18BF40F0010040F2FF72B2EB515FC2
:102FC00008BF40F00200012808BF052070472DE926
:102FD000F0414F1E00EBC7010446D1E90001154640
:102FE0001E4637F006020DD02A46334603F042FB58
:102FF0007F1E04EBC703D3E9002303F01BF937F06E
:103000000602F1D1022F25D0042F13D0062F18BFAE
:10301000BDE8F0812A46334603F02CFBD4E90A23AD
:1030200003F008F92A46334603F024FBD4E90823C9
:1030300003F000F92A46334603F01CFBD4E90623CB
:1030400003F0F8F82A46334603F014FBD4E90423CE
:1030500003F0F0F82A46334603F00CFBD4E90223D0
:1030600003F0E8F82A46334603F004FBD4E90023D2
:10307000BDE8F04103F0DEB8012204F0A8B903F086
:10308000D9B8002213461046114603F083B9000058
:10309000024A0020110704F09AB9000001FDFFFF69
:1030A00030380A2801D2012070470020704700BF45
:1030B000704700002DE9FE4F06460F460025684682
:1030C00001F0DCF9002442E056F8240057F82410FF
:1030D000A0EB010ABAF1000F01DB514601E0CAF191
:1030E0000001084603F06CFF83464FF08F4103F068
:1030F00035FE80465DF82400002103F0F1FE16D075
:103100005DF82410404603F029FE82464FF07E51C0
:1031100004F0B4F8814629F0004A0F48416A50464D
:1031200004F07AF812D20120A04005430EE00A48CC
:10313000C169404603F070FF05D30748016A404665
:1031400004F06AF802D20120A0400543641C032C5D
:10315000BADB2846BDE8FE8F847400082DE9F04DE7
:103160008D4F21F0004A86B005460C46BA452ADB51
:10317000AAEB070028430AD08848824501DC1AD10F
:10318000CDB106B02846BDE8F04DFFF775BF844AC3
:10319000844B284603F06EFA07460E46824A834B5C
:1031A0002846214603F066FA06B03A463346BDE8A3
:1031B000F04D03F03FB80120FDF745FA06B0BDE839
:1031C000F04DFFF75EBF7A48824542DABAF1795F87
:1031D0000BDA2846FFF7E7FE042808BFFFF758FF81
:1031E000284606B02146BDE8F08D2A460B4610461B
:1031F00003F040FA834602466E480E460B4606210F
:103200007844FFF7E4FE5A46334603F033FA80462B
:1032100069488A465A46334604217844FFF7D7FE68
:103220005A46334603F026FA00223B4603F002F8E2
:1032300002460B464046514603F0ACF82A46234668
:1032400003F018FA06B02A462346BDE8F04D02F016
:10325000F1BF284624F0004100223D463B4603F0E2
:1032600007FB4FF0FF3204F0B2F80646024653481F
:103270000F460B4606217844FFF7A9FE32463B462F
:1032800003F0F8F9CDE900014D4832463B460421F0
:103290007844FFF79CFE32463B4603F0EBF90022F0
:1032A0002B4602F0C7FF834602913046394602F0B2
:1032B00003FF804643480D46504517DCDDE9000119
:1032C0005A46029B03F066F842462B4603F0D2F9B9
:1032D00042462B4602F0AEFF012204F078F8304A55
:1032E000304B03F0B7FB304A304B4CE04FF0000A54
:1032F00052460B46404602F09DFFCDE90310524670
:103300002B461046194603F0B5F932463B4603F00A
:10331000AFFADDE9033203F03DF806460F46DDE97A
:1033200000015A46029B03F035F8834600910122C2
:103330003046394604F04BF8194A1A4B03F098FA14
:1033400006460F4601224046294604F040F85A46F8
:10335000009B03F08FF932463B4603F07BFB0646A9
:103360000F4601225046294604F031F80E4DDFF891
:1033700058802A46434603F07BFA32463B4603F028
:1033800077FA2A46434603F073FA002CD8BF81F03F
:10339000004106B0BDE8F08D0000F03F0000F07F76
:1033A000075C143326A6913C182D4454FB21F93FA9
:1033B0000000E03FB44E0000CA4E00003E4E000048
:1033C000544E00003333EF3FFB21E93F2DE9F84F26
:1033D00004460D4621F0004000917349814211DC02
:1033E0007249884201DC06D12CB120462946BDE84D
:1033F000F84FFFF741BE6E48002DCCBF6D496E49B6
:10340000BDE8F88F6D49814211DD6D498142D8BF19
:103410004FF0FF366DDD20462946FFF7C4FD042836
:1034200008BFFFF735FE20462946BDE8F88F6549FD
:10343000654F25F00045814233DD6449814219DD45
:10344000002632464FF080432046294602F0F2FE25
:1034500080468A4601222046294603F0B8FF002212
:103460003B4603F0F7FA4246534602F093FF044608
:103470000D463EE001260022BA463B46204629463C
:1034800002F0D8FE80460F460022534620462946C9
:1034900003F0E0FA42463B4602F07CFF04460D464C
:1034A00027E04B4981421BDDDFF828A102260022DC
:1034B00053462046294603F0DDF800223B4602F041
:1034C000B9FE80460F46002253462046294603F0A7
:1034D000C1FA42463B4602F05DFF04460D4608E055
:1034E000032622462B4600203B4902F053FF0446A8
:1034F0000D4622462B461046194603F0BBF88B4674
:10350000824602460B4603F0B5F8074602463348AA
:1035100088460B4606217844FFF759FD52465B4624
:1035200003F0A8F882462E488B463A4643460521CA
:103530007844FFF74CFD3A46434603F09BF80246B9
:103540000B46002E504659460CDA02F073FE224616
:103550002B4603F08FF801B022462B46BDE8F04F12
:1035600003F086B902F066FE22462B4603F082F88D
:103570001C4A7A4402EBC603D3E9002303F06AFA3B
:1035800022462B4603F066FA174A7A4402EBC6033A
:10359000D3E9002303F06CF9009A002AB8BF81F048
:1035A0000041BDE8F88F0000000010440000F07FEB
:1035B000182D4454FB21F93FFB21F9BF0000DC3FEB
:1035C0000000203E0000F33F0000F03F0000E63F17
:1035D000008003400000F83F0000F0BF564C0000A0
:1035E000144C0000B24B00007A4B00002DE9F04D66
:1035F0009446CCF1000423F000464CEA0404524FF8
:1036000046EAD4749A46884621F00042BC4206D865
:10361000454240EA050442EAD474BC4204D9BDE8FC
:10362000F04D6246FFF72BBDAAF14055A5F17F652D
:1036300055EA0C040BD0022404EAAA74434DDFF8C7
:1036400010E144EAD87452EA000B04D00CE0BDE863
:10365000F04DFFF7BBBE002C14BF012CBDE8F08D70
:10366000022C30D0032C32D056EA0C0B0AD0BE42CA
:1036700020D1BA4209D126F0804622F0804233465A
:10368000114617E000291ADB25E0DFF8C8B0FB443B
:10369000002C04BFDBE90001BDE8F08D012C02BF66
:1036A000DBE9000181F00041BDE8F08D022C0AD079
:1036B000032C0CD0BA4212D1B8F1000F0BDA234818
:1036C0002549BDE8F08D28462449BDE8F08D2846FF
:1036D0007146BDE8F08D1D482149BDE8F08D921B73
:1036E00012153C2AC4BF19481D490EDCBAF1000F5F
:1036F000BEBF12F13C0F0020014606DB624602F01D
:1037000049FE21F00041FFF761FE002C08BFBDE833
:10371000F08D012C04BF81F00041BDE8F08D114A0D
:10372000114B022C07D003F095F92A46BDE8F04D65
:103730000A4B03F08FB903F08DF92A46BDE8F04D2E
:10374000064B03F095B800000000F07F182D44549C
:10375000FB2109C00E4B0000FB21F9BFFB210940F2
:10376000FB21F93F075C143326A6A13C2DE9F0416B
:103770000446E07800F0C006E07800F03F0560788D
:1037800000F0010098B1EF102846E91705EB5171E0
:10379000C910A5EBC101491C01F0FF080B480068E6
:1037A00020B10A48414602683846904700BF607819
:1037B00000F0080030B10548406818B1B011034A64
:1037C000516888470020BDE8F08100000C0500200A
:1037D00010B56FF00400FFF7B5F80A4800680A4911
:1037E000B0FBF1F0094908700846007800EB400191
:1037F000C1EBC0104FF6FF7101EAC0000449088018
:1038000010BD00001C00002000127A0030000020D3
:10381000320000200146114A12884A434FF0E0234B
:103820005A6100229A611A46126942F001021A6135
:1038300000BF4FF0E022106900F001021AB100F45D
:103840008032002AF5D04FF0E022126922F0010206
:103850004FF0E0231A6100229A6170473200002085
:103860000146114A12784A434FF0E0235A61002280
:103870009A611A46126942F001021A6100BF4FF0C4
:10388000E022106900F001021AB100F48032002A2F
:10389000F5D04FF0E022126922F001024FF0E02350
:1038A0001A6100229A6170473000002038B5044642
:1038B00064B120208DF8000028208DF80100302010
:1038C0008DF8020038208DF8030004E0A3220421C3
:1038D0006846FCF709FE6A46042140F69E2002F085
:1038E00019FB01F003FF38BD3EB5044602208DF8F8
:1038F0000000CA208DF80100E3208DF802000920A5
:103900008DF803006A460421682002F003FBA3201F
:103910008DF8000004F0400048B1C0208DF801008F
:10392000C8208DF80200C2208DF8030006E0A32015
:103930008DF801008DF802008DF8030004F4C070CA
:1039400048B1C4208DF80400CC208DF80500C620B5
:103950008DF8060006E0A3208DF804008DF8050020
:103960008DF80600A3208DF807008DF808008DF86B
:1039700009006A460A2140F6A72002F0CBFA04F0BB
:10398000030018B120208DF8000002E0D8208DF847
:1039900000006A46012140F6B62002F0BBFA04F0AE
:1039A000200018B1012000F0ADF802E0002000F086
:1039B000A9F804F4C07008B304F4807060B1B220B8
:1039C0008DF800008B208DF80100B6208DF80200E4
:1039D0009B208DF803000BE0B0208DF800008020C4
:1039E0008DF80100B4208DF8020090208DF80300BE
:1039F0006A46042140F6A22002F08CFA04F001008D
:103A000020B3F8208DF800006A4601214FF40B60C6
:103A100002F080FAFA21072000F02CFC072000F0C9
:103A2000F3FB012000F013FC642000F0F3FC4FF4E2
:103A3000FA7000F002FDC821304800F0A3FB2820F6
:103A400000F0BCFB0A2000F0CCFB08E0D8208DF889
:103A500000006A4601214FF40B6002F05BFA04F0AB
:103A6000020018B1D9208DF8000002E0D8208DF8AE
:103A700000006A46012140F23D7002F04BFA04F06A
:103A8000040018B1012000F069F802E0002000F005
:103A900065F804F0100018B10120FFF707FF02E0FD
:103AA0000020FFF703FF44F008001549488101F0AA
:103AB0001DFE00201249887304F0400018B108462A
:103AC000807B801D887304F4C07020B10C48807B1B
:103AD000801D0B49887304F0140020B10848807BD6
:103AE00010300749887304F0030020B10448807B3C
:103AF000001D0349887300203EBD000009E3CA028F
:103B00000C0500203EB504466CB10EA1D1E90020A1
:103B10008968CDE9002002916A4609214FF4976037
:103B200002F0F8F93EBD0AA2D2E900109268CDE990
:103B3000010200916A4609214FF4976002F0EAF908
:103B4000F0E70000B8AAB38DB4980D355D00000011
:103B5000B8AAAAAAB088C3C5C700000038B50446F1
:103B600064B1C0208DF80000C2208DF80100C4208F
:103B70008DF80200C6208DF8030004E08B2204219A
:103B80006846FCF7B1FC6A46042140F6982002F032
:103B9000C1F901F0ABFD38BD10B5C8234FF4806208
:103BA000024940F6F63001F035FC10BDAC74000857
:103BB0002DE9F04F8DB00746884615469946DDE958
:103BC000166B0024002030806B49887B5A4605A97B
:103BD00001F0ECFC18B1601E0DB0BDE8F08F664836
:103BE000807A00F01400002867D09DF814000006C9
:103BF0009DF8151040EA01409DF8161040EA01209A
:103C00009DF81710084328609DF8180000069DF8DD
:103C1000191040EA01409DF81A1040EA01209DF871
:103C20001B10084368609DF81C0000069DF81D10DD
:103C300040EA01409DF81E1040EA01209DF81F1047
:103C40000843A8609DF8200000069DF8211040EA76
:103C500001409DF8221040EA01209DF823100843FE
:103C6000E86004F11000C4B228680014019068688C
:103C700000140290A86800140390E86800140490EF
:103C800001984043029901FB0100039901FB0100E7
:103C9000049901FB010ABAF1706F02DBBAF1885F87
:103CA00005DD01F023FD00203080401E94E7B6F9C9
:103CB000000040F48070308000BF2F48807A00F010
:103CC000400020B305A9601C085C095D40EA0120A2
:103CD00000B2A8F8000005A9E01C095C05AAA01C18
:103CE000105C41EA002000B2A8F8020005A9601D9E
:103CF000095C201D105C41EA002000B2A8F8040015
:103D0000A01DC4B2B6F9000040F0080030801A4887
:103D1000408900F4C07008B305A9601C085C095D07
:103D200040EA012000B2388005A9E01C095C05AA20
:103D3000A01C105C41EA002000B2788005A9601D3B
:103D4000095C201D105C41EA002000B2B880A01D73
:103D5000C4B2B6F9000040F0700030800648807AA6
:103D600000F0030018B105A90819FFF7FFFC484649
:103D700000F0E3FF00202FE70C05002070B588B0AD
:103D8000064601A801F09AF9BDF804000021C90314
:103D900041EA5045C4034448007A00F0030056F855
:103DA000200005904048007A00F0040010B105980A
:103DB000404205903C48007AC0F3C10056F820000C
:103DC00006903948007A00F0200010B10698404271
:103DD00006903548007AC0F3811056F8200007900D
:103DE0003148008900F4807010B107984042079074
:103DF0000598C117A0FB042301FB043100FB05104B
:103E0000810041EA927005900698C117A0FB042337
:103E100001FB043100FB0510810041EA927006901D
:103E20000798C117A0FB042301FB043100FB051018
:103E3000810041EA927007900598000E8DF8080005
:103E40000598000C8DF809000598000A8DF80A0005
:103E50000598C0B28DF80B000698000E8DF80C0086
:103E60000698000C8DF80D000698000A8DF80E00DB
:103E70000698C0B28DF80F000798000E8DF810005C
:103E80000798000C8DF811000798000A8DF81200B1
:103E90000798C0B28DF8130002AA0C214FF42570C8
:103EA00002F038F808B070BD0C05002030B585B0C0
:103EB000044616A207CA02AB07C3C82C03DD4FF0A5
:103EC000FF3005B030BDC82090FBF4F0401E85B235
:103ED000280A8DF80000E8B28DF801006A46022138
:103EE00040F2162002F016F810B14FF0FF30E8E76C
:103EF00002AA0C2140F6C12002F00CF810B14FF0DC
:103F0000FF30DEE7044884810020DAE7FEF2ABC42C
:103F1000AAF1DFDFBBAFDFDF0C0500201FB50446D1
:103F20004848007A00F0030054F82000019045480A
:103F3000007A00F0040010B101984042019041481D
:103F4000007AC0F3C10054F8200002903D48007A86
:103F500000F0200010B10298404202903948007AE7
:103F6000C0F3811054F8200003903648008900F413
:103F7000807010B10398404203903349019880FB50
:103F80000101800F40EA810001902F49029880FBD7
:103F90000110820042EA917002902B49039880FB45
:103FA0000110820042EA917003900198000E8DF892
:103FB00000000198000C8DF801000198000A8DF8AE
:103FC00002000198C0B28DF803006A4604214FF444
:103FD000747001F09FFF18B14FF0FF3004B010BDB6
:103FE0000298000E8DF800000298000C8DF8010078
:103FF0000298000A8DF802000298C0B28DF8030002
:104000006A4604214FF4757001F084FF10B14FF03F
:10401000FF30E3E70398000E8DF800000398000CD2
:104020008DF801000398000A8DF802000398C0B2D1
:104030008DF803006A4604214FF4767001F06AFFA0
:10404000CCE700000C05002009E3CA0210B586B0D9
:10405000044647A00068039046A00068029046A06E
:104060000068019045A00068009004F0030003A9D7
:10407000085C8DF8140003A8C4F3C101405C8DF8FE
:10408000150003A8C4F38111405C8DF8160004F0FC
:10409000030002A9085C8DF8100002A8C4F3C10156
:1040A000405C8DF8110002A8C4F38111405C8DF8CA
:1040B000120005AA032140F2264001F02BFF18B19F
:1040C0004FF0FF3006B010BD04AA032140F22A4091
:1040D00001F020FF10B14FF0FF30F3E70198059099
:1040E0000098049004F0040058B19DF8140040F0CA
:1040F00001008DF814009DF8100040F001008DF8CB
:10410000100004F0200058B19DF8150040F00100A7
:104110008DF815009DF8110040F001008DF8110098
:1041200004F4807058B19DF8160040F001008DF83D
:1041300016009DF8120040F001008DF8120005AA4B
:1041400003214FF4886001F0E5FE10B14FF0FF301D
:10415000B8E704AA032140F2314001F0DBFE10B1C0
:104160004FF0FF30AEE7064804810020AAE70000C8
:104170004CCD6C000CC92C003656760026466600E5
:104180000C050020F8B505460E464FF47A7095FBF5
:10419000F0F000FB06F4200E8DF80000200C8DF8E6
:1041A0000100200A8DF80200E0B28DF803006A4693
:1041B00004214FF4AE7001F0ADFEF8BD38B50446F1
:1041C000052094FBF0F084B220128DF80000E0B2DC
:1041D0008DF801006A4602214FF4AD7001F09AFE9D
:1041E00038BD38B50446052094FBF0F084B22012A7
:1041F0008DF80000E0B28DF801006A4602214FF40C
:10420000AC7001F087FE38BD38B504460020009040
:1042100004F0010020B19DF8000040F03000009053
:1042200004F0020020B19DF8000040F00C00009066
:1042300004F0040020B19DF8000040F0030000905D
:104240006A4601214FF4A47001F064FE38BD38B510
:104250000446012C01DA012402E0042C00DD0424D0
:10426000601EC0B200906A46012140F24F1001F07A
:1042700051FE38BD2DE9FC4706460F4606F0070003
:1042800010B1B7F5C86F03DD4FF0FF30BDE8FC8714
:10429000384602F0ADFE8146594902F05FFD804686
:1042A000684600F0E5FE9DF80000022806D00428CC
:1042B00016D0082826D0102848D135E04FF08D417F
:1042C000404602F0DDFE814602F05AFE84B24D49BE
:1042D000404602F0D5FE814602F052FE85B238E03B
:1042E0004FF08C41404602F0CBFE814602F048FE82
:1042F00084B24549404602F0C3FE814602F040FECA
:1043000085B226E04FF08B41404602F0B9FE81466F
:1043100002F036FE84B23D49404602F0B1FE8146CD
:1043200002F02EFE85B214E04FF08A41404602F0C2
:10433000A7FE814602F024FE84B23549404602F0D1
:104340009FFE814602F01CFE85B202E04FF0FF3076
:104350009CE700BF20128DF80400E0B28DF8050044
:1043600028128DF80600E8B28DF8070006F001006B
:10437000A0B101AA02214FF4EA7001F0CBFD10B107
:104380004FF0FF3082E70DF1060202214FF49270E8
:1043900001F0C0FD10B14FF0FF3077E706F00200EA
:1043A000A0B101AA02214FF4EC7001F0B3FD10B1ED
:1043B0004FF0FF306AE70DF1060202214FF49470CE
:1043C00001F0A8FD10B14FF0FF305FE706F00400E8
:1043D000A0B101AA02214FF4EE7001F09BFD10B1D3
:1043E0004FF0FF3052E70DF1060202214FF49670B4
:1043F00001F090FD10B14FF0FF3047E7002045E796
:1044000000004843000040460000C0450000404511
:104410000000C04438B50446052094FBF0F085B296
:1044200028128DF80000E8B28DF801006A460221DA
:104430004FF4EF7001F06EFD38BD38B5044605202D
:1044400094FBF0F085B228128DF80000E8B28DF8E8
:1044500001006A4602214FF4ED7001F05BFD38BDAA
:1044600000BF054A128802F04002002AF9D0C2B209
:10447000014B1B1D1A807047003801407CB5054672
:1044800028494968087801AB04220D21FEF721F87C
:1044900008B107207CBD9DF80700C0F301109DF80E
:1044A000041001F0E00140EAE1008DF800009DF801
:1044B0000700C0F381009DF8051001F0E00140EA1B
:1044C000E1008DF801009DF8070000F003009DF861
:1044D000061001F0E00140EAE1008DF8020000243E
:1044E0001CE01DF8040018B9002045F8240013E072
:1044F0000D4845F8240006E055F824000B4902F069
:10450000BFFD45F824001DF80400401EC0B20DF8A0
:1045100004000028F0D100BF601CC4B2032CE0DB13
:104520000020B7E7840000207B14AE3E1D5A843F74
:104530002DE9F04F87B005460C46914601208DF8D5
:10454000100000208DF81100FE4A1268917CFD4A8F
:104550005268107804AB0222FEF761F820B14FF0E8
:10456000FF3007B0BDE8F08FC820FFF753F90020F7
:104570008DF81000F34A1268D17BF24A5268107825
:1045800004AB0122FEF74BF810B14FF0FF30E8E723
:10459000EC4A12685179EB4A5268107804AB012258
:1045A000FEF73DF810B14FF0FF30DAE7E54A126848
:1045B000917CE44A5268107804AB0122FEF72FF890
:1045C00010B14FF0FF30CCE7DE4A1268D17DDD4AF2
:1045D0005268107804AB0122FEF721F810B14FF0B9
:1045E000FF30BEE7D74A12681179D64A5268107870
:1045F00004AB0122FEF713F810B14FF0FF30B0E723
:104600000C208DF81000CF4A12681179CD4A5268FB
:10461000107804AB0122FEF702F810B14FF0FF3022
:104620009FE70F20FFF7F6F8C648806A407A8DF8BA
:104630001000C44A12689178C24A5268107804ABDC
:104640000122FDF7ECFF10B14FF0FF3089E7BD48C4
:10465000806A007A8DF81000BA4A12685178B94A17
:104660005268107804AB0122FDF7D9FF10B14FF06A
:10467000FF3076E7B9F1000F07D0B248806A807A40
:1046800040F0E0008DF8100004E0AE48806A807AC7
:104690008DF81000AB4A12689179AA4A52681078D6
:1046A00004AB0122FDF7BBFF10B14FF0FF3058E71C
:1046B000B9F1000F07D0A348806AC07A40F0E0004B
:1046C0008DF8100003E0A048C07A8DF810009D4AD4
:1046D0001268D1799B4A5268107804AB0122FDF729
:1046E0009EFF10B14FF0FF303BE7B9F1000F02D051
:1046F000C820FFF78FF840208DF81000914A12680B
:104700001179904A5268107804AB0122FDF787FFB7
:1047100010B14FF0FF3024E778208DF81000894A5F
:1047200012685179874A5268107804AB0122FDF76C
:1047300076FF10B14FF0FF3013E783498889FFF708
:1047400069F800208DF810007E4A126851797D4A80
:104750005268107804AB0122FDF761FF10B14FF0F1
:10476000FF30FEE6774A1268917A764A52681078EE
:1047700004AB0222FDF7ADFE10B14FF0FF30F0E6C2
:104780009DF811009DF8101040EA012B0C209BFBB6
:10479000F0F0C6B20020A86068602860A060606089
:1047A0002060824665E0674A1268D17A654A52689D
:1047B000107804AB0C22FDF78CFE10B14FF0FF30E7
:1047C000CFE69DF811009DF8101040EA012000B2DC
:1047D000ADF808009DF813009DF8121040EA012082
:1047E00000B2ADF80A009DF815009DF8141040EADB
:1047F000012000B2ADF80C00BDF908102068084493
:104800002060BDF90A10606808446060BDF90C10B2
:10481000A0680844A0609DF817009DF8161040EAB3
:10482000012000B2ADF800009DF819009DF81810A5
:1048300040EA012000B2ADF802009DF81B009DF88F
:104840001A1040EA012000B2ADF80400BDF90010D2
:10485000286808442860BDF9021068680844686048
:10486000BDF90410A8680844A8600AF1010000F02E
:10487000FF0AB24597DB3448D0F800C02868C1175A
:10488000090441EA10410704624600233846FBF759
:10489000CEFC32460023CDE90201FBF7C8FC2860BC
:1048A0002948D0F800C06868C117090441EA1041DE
:1048B0000704624600233846FBF7B9FC3246002362
:1048C000CDE90201FBF7B3FC68601F48D0F800C0D7
:1048D000A868C117090441EA104107046246002391
:1048E0003846FBF7A4FC32460023CDE90201FBF772
:1048F0009EFCA8601448D0F804C02168C8170004C2
:1049000040EA11480F046246002338464146FBF74F
:104910008EFC32460023CDE90201FBF788FC2060C3
:104920000948D0F804C06068C117090441EA104181
:104930000704624600233846FBF779FC3246002321
:1049400004E000008400002084740008CDE9020126
:10495000FBF76DFC60601148D0F804C0A068C11777
:10496000090441EA10410704624600233846FBF778
:104970005EFC32460023CDE90201FBF758FCA06043
:10498000A068002804DDA068A0F58030A06003E0E6
:10499000A06800F58030A0600020E2E58474000883
:1049A0002DE9FC5F06460F4600253D494968087819
:1049B00001AB03220D21FDF78CFD10B10720BDE8EE
:1049C000FC9F9DF8040000F01F008DF804009DF886
:1049D000050000F01F008DF805009DF8060000F0AE
:1049E0001F008DF80600002456E056F8240057F802
:1049F0002410A0EB010BBBF1000F01DB594601E0D5
:104A0000CBF10001084602F0DBFA4FF08F41009035
:104A100002F0A4F9814601A8005D68B32149086845
:104A200002F0E6FA834659461F4802F097F980469D
:104A300004E01E49404602F023FB804601A8005DC9
:104A4000401EC0B201A908550028F2D1414648468F
:104A500002F084F983464FF07E5102F00FFC82464B
:104A60002AF0004B0F488169584602F0D5FB12D25C
:104A70000120A04005430EE00A480169484602F0C3
:104A8000CBFA05D307484169484602F0C5FB02D27C
:104A90000120A0400543641C032CA6DB28468EE7BA
:104AA000840000208474000800B04C4554E3853F26
:104AB00010B50446204600F00FF80346E01C00F055
:104AC0000BF843EAC00083B2A01D00F005F843EAEA
:104AD000801083B2184610BD014691F90020002ACB
:104AE00001DD00201EE091F90020002A01DA0420F7
:104AF00018E091F90120002A01DD012012E091F96E
:104B00000120002A01DA05200CE091F90220002A98
:104B100001DD022006E091F90220002A01DA0620D8
:104B200000E007207047000088B04FF0000AFEF751
:104B30004FFEFDF723FA4FF4A060FDF7DBFD4FF4C5
:104B4000165001F0DFFAFCF779FEFDF70DFC472166
:104B500040F2CF70FEF750F806E059A0FBF78CFB4F
:104B60004FF4FA60FEF756FE00F032FA0028F4D156
:104B700057A0FBF781FB00205B49086001205B49DF
:104B8000C1F8940101210220FDF7DCFD97E0FCF75C
:104B90000DFFFDF745FCFCF745FF5548007848B18F
:104BA00054480068782808DD0020524908605049C0
:104BB000087002E000204F4908600AF1010080B24D
:104BC0008246142190FBF1F201FB120028BB4A48F7
:104BD000006802F029F804460D464848006802F0D3
:104BE00023F806460F464648006802F01DF8804646
:104BF00089464448CDE90467CDE906450068424945
:104C000009683C4A1268CDE90021029042464B46B1
:104C10003E48FBF731FB4FF0000A14209AFBF0F1FD
:104C200000FB11A058BB3A48006832490968884225
:104C30000CD33048006848B936480068401C3549F4
:104C400008602C4800683249086005E07820304947
:104C5000086000202F4908602B48006810B9002028
:104C60002D4908602C480068401C2B490860082822
:104C700006D30120294908700020274908600AE06E
:104C800025480068052806D322480068052802D375
:104C900001202349087021480078214909780843F8
:104CA00010B10120174908601648006838B10E4855
:104CB000006808B9012000E000200B49086066E7A1
:104CC0004D505536303530204552524F520D0A0066
:104CD0005065726970686572616C7320496E6974A1
:104CE000204F4B0D0A000000948121420000234216
:104CF0006500002058000020040000200000002073
:104D0000E800002008000020F40000203C82000899
:104D10001800002014000020100000200C000020CB
:104D20000D00002070B50446049D601AEE1A704311
:104D3000561A90FBF6F0184470BD704770B50446E3
:104D4000002624F00104184890F8240008B100203F
:104D500070BD1548807A10B94FF0FF30F8E712485F
:104D6000057C807A2040104908740846007CA042E7
:104D700002D04FF0FF3600E0002614B90A48007D4B
:104D800018B1012001F050F902E0002001F04CF9C7
:104D90003CB100F0ABFC20B1034805744FF0FF308C
:104DA000D6E73046D4E70000840000202DE9F04F1C
:104DB00099B004460D4616464FF07E574FF0000856
:104DC0004FF000094FF0000A12A813A918AB0EAA61
:104DD000CDE9001014A916A8FEF7EAFE18B10120CB
:104DE00019B0BDE8F08FBDF84C0000F480700028C9
:104DF0007ED00E9802F0E4F883464FF09D4101F01A
:104E0000ADFF07460F9802F0DBF883464FF09D4157
:104E100001F0A4FF8046109802F0D2F883464FF0CC
:104E20009D4101F09BFF8146119802F0C9F883462D
:104E30004FF09D4101F092FF824639464FF080408D
:104E400002F01EF94946059002F01AF94146079012
:104E50004FF0404002F014F95146059002F010F96D
:104E60000690079901F00CFF834601F0DDFECDE9C5
:104E70000801FEF773F94FF06632544BCDE90A0191
:104E800001F0F8FBCDE90C0101F0A2F920604946E0
:104E90004FF0804002F0F4F84946029002F0F0F83A
:104EA000414604904FF0404002F0EAF8414602903B
:104EB00002F0E6F80390049902F0E0F983464FF01F
:104EC0007E5101F0DDFE059001F0AEFECDE9080156
:104ED00039464FF0804002F0D3F84146039002F08B
:104EE000CFF8494604904FF0804002F0C9F800E046
:104EF00068E05146039002F0C3F88346049901F03C
:104F0000BFFE059001F090FECDE90601DDE9082322
:104F1000FEF76CFB4FF066322C4BCDE90A0101F035
:104F2000A9FBCDE90C0101F053F928605146504628
:104F300002F0A6F849460490484602F0A1F841461E
:104F40000390404602F09CF839460190384602F042
:104F500097F80090019901F093FE0290039902F0F6
:104F60008DF98346049902F089F9059001F05CFE01
:104F7000CDE908015146384602F082F849460490CE
:104F8000404602F07DF80390049901F079FE4FF05D
:104F90008041059002F074F8834601F045FECDE9AA
:104FA0000601DDE90823FEF721FB4FF06632074BCF
:104FB000CDE90A0101F05EFBCDE90C0101F008F931
:104FC000306001E002200BE7002009E766A64C40B4
:104FD00070B50024FDF7A8F800F024F9002840D1AE
:104FE000782000F02FFFC4B20CB1012070BD7820F2
:104FF000FFF7A4FEC4B20CB10220F7E7642000F072
:10500000D3FEC4B20CB10320F0E7FEF7C5FDC4B275
:105010000CB10420EAE71548FFF74AFD0546FFF703
:1050200015F8C4B20CB10520E0E740F27310FEF7AA
:105030005BFCC4B20CB10620D8E76420FEF736FF53
:10504000C4B20CB10720D1E700F0A4FF04460CB1B4
:105050000820CBE7012000F0A3FDC4B21CB1092059
:10506000C4E70A20C2E70020C0E70000B00000202B
:1050700001461148407A30B1012807D0022808D0F3
:1050800003280CD108E0022008700BE0042008700F
:1050900008E00820087005E01020087002E04FF0DA
:1050A000FF30704700BF0448C07C18B10878400644
:1050B000000E08700020F4E7840000200146134829
:1050C000407A30B1012808D002280AD0032810D134
:1050D0000BE04FF4804008800EE041F69C700880A1
:1050E0000AE04FF48050088006E04FF4006008802A
:1050F00002E04FF0FF30704700BF0448C07C10B1A1
:105100000888401008800020F5E700008400002097
:1051100001460248007C087000207047840000208F
:1051200001460F48007A30B1012807D0022809D083
:1051300003280FD10AE0FA2008800EE04FF4FA703D
:1051400008800AE04FF47A70088006E04FF4FA60B5
:10515000088002E00020088000BF00BF00207047E8
:105160008400002001460E48007A30B1012807D0A3
:10517000022808D003280CD108E00A4808600BE098
:105180000948086008E00948086005E00848086028
:1051900002E04FF0FF30704700BF0020FBE7000047
:1051A00084000020000003430000834233330342A5
:1051B0003333834101461248C07A082817D2DFE80A
:1051C00000F01704070A0D101318BC20088013E024
:1051D0006220088010E02A2008800DE0142008805A
:1051E0000AE00A20088007E00520088004E000BFEC
:1051F00000BF0020088000BF00BF002070470000F3
:10520000840000200146064890F8240010B14FF0B9
:10521000FF3070470248C08908800020F9E700008D
:10522000840000201CB580208DF80000654A1268BB
:10523000917C644A526810786B460122FDF7EFF9C1
:1052400010B14FF0FF301CBD6420FEF7E3FA0020E0
:105250008DF800005B4A1268917C5A4A52681078B7
:105260006B460122FDF7DBF910B14FF0FF30EAE7A2
:10527000544A1268917D534A526810786B46062250
:10528000FDF727F910B14FF0FF30DCE79DF805007E
:10529000C007400F9DF8031001F0010140EA4100F2
:1052A0009DF8011001F0010140EA010494B1012CC4
:1052B00003D101214348C17431E0022C03D1002104
:1052C0004048C1742BE021463FA0FAF7D5FF4FF0CC
:1052D000FF30B8E73B4A1268D1783A4A52681078F2
:1052E0006B460122FDF7F5F810B14FF0FF30AAE749
:1052F0009DF8000000F00F042CB93D48FAF7BCFF00
:105300004FF0FF309FE7042C06D13AA0FAF7B4FF24
:1053100001212C48C17402E000212A48C174FF21F8
:1053200028488172FF2027490872FF2125484172D1
:10533000C1724FF6FF71C181FF2101748174012197
:10534000017380F82210002180F823104175017547
:105350001630016041608160163880F8241080F8B2
:105360002510C1844FF4FA6000F062FC10B14FF0D8
:10537000FF3068E7022000F02BFB10B14FF0FF3048
:1053800061E72A2000F0CEFC10B14FF0FF305AE761
:10539000322000F009FD10B14FF0FF3053E700203C
:1053A000FFF7CCFC10B14FF0FF304CE7002000F0CD
:1053B00051FB10B14FF0FF3045E7002000F042FDF7
:1053C000002040E784000020556E737570706F7286
:1053D00074656420736F6674776172652070726F94
:1053E00064756374207265762025642E0A000000BF
:1053F0009C82000848616C662073656E73697469ED
:1054000076697479207061727420666F756E642E8F
:105410000A0000002DE9F04385B005460E4690468F
:105420009946294890F8250020B14FF0FF3005B08B
:10543000BDE8F08316B94FF0FF30F8E7002423E011
:10544000281B102801DD102000E0281B87B232192C
:105450003946204600F05EFD10B14FF0FF30E6E720
:1054600001AA3946204600F001F910B14FF0FF3093
:10547000DDE730193A4601A9FBF70AF810B16FF0E1
:105480000100D4E7E01984B2AC42D9DB4FEA28200E
:105490008DF8000008F0FF008DF801000A4A12683C
:1054A000917E094A526810786B460222FDF7B7F8E0
:1054B00010B14FF0FF30BAE70121034880F8251002
:1054C000A0F826900020B2E78400002038B50446FA
:1054D000282C02DD4FF0FF3038BDDCB9002000F091
:1054E000EBFB00208DF8000007208DF801002E4A0C
:1054F0001268917C2C4A526810786B460222FDF7A4
:105500008EF810B14FF0FF30E6E700212648017514
:105510000020E1E7012000F0CFFB20208DF8000003
:10552000012C06D100208DF80100052000F0FAFBC7
:1055300017E0052C06DC01208DF80100052000F0A5
:10554000F1FB0EE0142C06DC02208DF801000A208D
:1055500000F0E8FB05E003208DF80100142000F0C6
:10556000E1FB9DF80100072101EB8010C0B28DF82E
:1055700001000D4A1268917C0B4A526810786B4604
:105580000222FDF74CF810B14FF0FF30A4E70821DC
:105590000548817200210173012101750020FFF788
:1055A000CDFB002098E7000084000020F8B50446F9
:1055B0000F4616462C4890F8240010B94FF0FF30E3
:1055C000F8BD2948807A10B94FF0FF30F8E7264A35
:1055D0001268917A244A526810786B460222FCF7CE
:1055E00078FF10B14FF0FF30EAE79DF801009DF819
:1055F000001040EA0125A54203DA00203070401E69
:10560000DEE7194840684088B5EB600F17DD164AA1
:105610001268517C144A526810786B460122FCF7DC
:1056200058FF10B14FF0FF30CAE79DF8000000F0BE
:10563000100020B100F05AF86FF00100C0E7E2B2AC
:10564000094B1B68D97A084B5B6818783B46FCF716
:1056500040FF10B14FF0FF30B2E795FBF4F0401E71
:1056600030700020ACE7000084000020F8B504464C
:105670000D46164616B94FF0FF30F8BD1A48807A2D
:1056800010B94FF0FF30F8E720128DF80000E0B2BB
:105690008DF801009DF801002844134949684989A3
:1056A000884202DD4FF0FF30E7E70F4A1268117EB3
:1056B0000D4A526810786B460222FCF7B0FF10B119
:1056C0004FF0FF30D9E7EAB2074B1B68597D064B14
:1056D0005B6818783346FCF7FCFE10B14FF0FF30E2
:1056E000CBE70020C9E700008400002008B570481F
:1056F000807A10B94FF0FF3008BD002000906C4A4E
:105700001268D17B6A4A526810786B460122FCF716
:1057100086FF10B14FF0FF30EEE7654A126851790D
:10572000634A526810786B460122FCF778FF10B18B
:105730004FF0FF30E0E75E4A126811795C4A526828
:1057400010786B460122FCF76AFF10B14FF0FF3072
:10575000D2E7574890F82400002853D00C2000903E
:10576000534A12681179524A526810786B460122E6
:10577000FCF755FF10B14FF0FF30BDE73220FEF7C8
:1057800049F8C02000904A48807A00F0010020B11A
:105790009DF8000040F020000090454A1268117901
:1057A000434A526810786B460122FCF738FF10B16B
:1057B0004FF0FF30A0E73E48407C10B1022000903F
:1057C00001E0002000903A4A1268D17B384A5268C2
:1057D00010786B460122FCF722FF10B14FF0FF302A
:1057E0008AE700200090324A12685179304A5268A4
:1057F00010786B460122FCF712FF002855D04FF0BD
:10580000FF3079E704200090294A12681179284A6C
:10581000526810786B460122FCF701FF10B14FF07F
:10582000FF3069E72248807C20B92148807A00F067
:10583000010010B94020009001E0602000901C4A57
:10584000126811791A4A526810786B460122FCF7E7
:10585000E6FE10B14FF0FF304EE73220FDF7DAFFE1
:105860001348407C10B10120009001E0002000901E
:105870000F4A1268D17B0E4A526810786B4601229B
:10588000FCF7CDFE10B14FF0FF3035E7084A126843
:105890005179074A52681078054B10330122FCF702
:1058A000BEFE10B14FF0FF3026E7002024E70000D5
:1058B000840000202DE9F04F8DB083460F46022072
:1058C0000C90424890F8240020B1002000F068F9C4
:1058D000012600E0002603A8FFF722FC05A8FFF739
:1058E000C7FB01A8FFF766FC02A8FFF78BFC37484F
:1058F00090F80AA004A8FFF70BFC002407E00022A0
:1059000039465846FEF714FE00B902E0641C022C2A
:10591000F5DB00BF022C01D1002528E0002407E0C0
:10592000012206A909A8FEF703FE00B902E0641CE3
:10593000022CF5DB00BF022C01D1002517E006A9DF
:105940003846FDF7B7FB00F0FF0809A95846FFF7F6
:1059500027F800F0FF090025B9F1000F01D145F04B
:105960000105B8F1000F01D145F0020500BFFF208D
:1059700016490872FF2115484172C1724FF6FF7136
:10598000C181FF218172017401210173BDF80C00F6
:1059900000F04EF99DF8140000F01AF8BDF804006C
:1059A00000F0C0F9BDF8080000F0FEF9504600F024
:1059B00049FA9DF81000FFF7C1F916B1012000F077
:1059C000EFF828460DB0BDE8F08F000084000020FD
:1059D00038B504461E48807A10B94FF0FF3038BD04
:1059E000022C06D0042C07D0082C08D0102C0CD187
:1059F00008E0002000900BE00820009008E0102054
:105A0000009005E01820009002E04FF0FF30E6E73C
:105A100000BF0F48407A9DF80010B0EBE10F01D1B4
:105A20000020DCE70A4A1268D179094A52681078E6
:105A30006B460122FCF7F3FD10B14FF0FF30CEE7CB
:105A40009DF80000C110024841720020C7E7000025
:105A50008400002038B504465048807CA04201D123
:105A6000002038BD002C46D04C4A126811794B4AB0
:105A7000526810786B460122FCF72BFD10B14FF0F5
:105A8000FF30EEE79DF8000020F020000090434A30
:105A900012681179414A526810786B460122FCF76E
:105AA000BEFD10B14FF0FF30DBE70320FDF7B2FE83
:105AB00002200090394890F8220020B19DF80000A3
:105AC00040F080000090354890F8230020B19DF808
:105AD000000040F030000090304A1268117D2F4ADB
